:020000040000FA
:100000000C945D000C9485000C9485000C94850084
:100010000C9485000C9485000C9485000C9485004C
:100020000C9485000C9485000C9485000C9485003C
:100030000C9485000C9485000C9485000C9485002C
:100040000C942B040C9485000C94F9030C94D303AA
:100050000C9485000C9485000C9485000C9485000C
:100060000C9485000C94850000000008000201003B
:100070000003040700000000000000000000000072
:10008000250028002B0000000000240027002A0083
:10009000040404040404040402020202020203032E
:1000A0000303030301020408102040800102040836
:1000B0001020010204081020670611241FBECFEF94
:1000C000D8E0DEBFCDBF11E0A0E0B1E0EAE0FEE0A5
:1000D00002C005900D92AC3EB107D9F722E0ACEE1C
:1000E000B1E001C01D92AC3AB207E1F710E0CDE5F6
:1000F000D0E004C02197FE010E94EF06CC35D10765
:10010000C9F70E9475040C9403070C94000090E05A
:10011000FC01EC55FF4F249180579F4FFC018491C7
:10012000882399F090E0880F991FFC01EA57FF4F50
:10013000A591B491FC01E458FF4F859194918FB73C
:10014000F894EC91E22BEC938FBF0895AF92BF929D
:10015000CF92DF92EF92FF920F931F93CF93DF9393
:100160006C017B018B01040F151FEB015E01AE18C2
:10017000BF08C017D10759F06991D601ED91FC91E4
:100180000190F081E02DC6010995892B79F7C50111
:10019000DF91CF911F910F91FF90EF90DF90CF9063
:1001A000BF90AF900895FC01538D448D252F30E012
:1001B000842F90E0821B930B541710F0CF96089574
:1001C00001970895FC01918D828D981761F0A28DA1
:1001D000AE0FBF2FB11D5D968C91928D9F5F9F7367
:1001E000928F90E008958FEF9FEF0895FC01918D1D
:1001F000828D981731F0828DE80FF11D858D90E08A
:1002000008958FEF9FEF0895FC01918D228D892F26
:1002100090E0805C9F4F821B91098F73992708950E
:100220008FE092E00E94040121E0892B09F420E094
:10023000822F0895FC01A48DA80FB92FB11DA35AD8
:10024000BF4F2C91848D90E001968F739927848FF6
:10025000A689B7892C93A089B1898C918370806419
:100260008C93938D848D981306C00288F389E02DBA
:1002700080818F7D80830895EF92FF920F931F936B
:10028000CF93DF93EC0181E0888F9B8D8C8D981349
:100290001AC0E889F989808185FF15C09FB7F89455
:1002A000EE89FF896083E889F989808183708064A1
:1002B00080839FBF81E090E0DF91CF911F910F91EC
:1002C000FF90EF900895F62E0B8D10E00F5F1F4FFB
:1002D0000F731127E02E8C8D8E110CC00FB607FC0A
:1002E000FACFE889F989808185FFF5CFCE010E9498
:1002F0001A01F1CFEB8DEC0FFD2FF11DE35AFF4FEB
:10030000F0829FB7F8940B8FEA89FB898081806225
:10031000CFCF6AE18FE092E00C943C01CF93DF9362
:10032000EC01888D8823B9F0AA89BB89E889F9890D
:100330008C9185FD03C0808186FD0DC00FB607FC42
:10034000F7CF8C9185FFF2CF808185FFEDCFCE0175
:100350000E941A01E9CFDF91CF91089590E0FC014E
:10036000E859FF4F2491FC01EC55FF4F3491FC01FB
:10037000E057FF4FE491EE23C9F0222339F02330F8
:1003800001F1A8F4213019F1223029F1F0E0EE0F4B
:10039000FF1FE458FF4FA591B4918FB7F894EC91EB
:1003A000611126C030953E233C938FBF08952730BE
:1003B000A9F02830C9F0243049F7809180008F7D62
:1003C00003C0809180008F7780938000DFCF84B559
:1003D0008F7784BDDBCF84B58F7DFBCF8091B0005C
:1003E0008F778093B000D2CF8091B0008F7DF9CF0E
:1003F0003E2BDACF3FB7F8948091F1019091F20152
:10040000A091F301B091F40126B5A89B05C02F3F40
:1004100019F00196A11DB11D3FBFBA2FA92F982F2A
:100420008827BC01CD01620F711D811D911D42E025
:10043000660F771F881F991F4A95D1F708958F92ED
:100440009F92AF92BF92CF92DF92EF92FF924B01B9
:100450005C010E94FA016B017C010E94FA016C1997
:100460007D098E099F09683E734081059105A8F3B7
:1004700021E0821A9108A108B10888EEC80E83E035
:10048000D81EE11CF11C81149104A104B10429F7C8
:10049000FF90EF90DF90CF90BF90AF909F908F90A4
:1004A00008958FE092E00E940401892B09F46AC04C
:1004B0002FB7F8948091ED019091EE01A091EF019A
:1004C000B091F0012FBF8093170290931802A09370
:1004D0001902B0931A028FE092E00E94E20097FFA7
:1004E00025C02FB7F8948091ED019091EE01A09175
:1004F000EF01B091F0012FBF409117025091180207
:100500006091190270911A02841B950BA60BB70B10
:1005100040911302509114026091150270911602DD
:1005200084179507A607B707B0F2BBCF8F9709F0DE
:10053000BFCF68EE73E080E090E00E941F028FE082
:1005400092E00E940401892B09F4ABCF8FE092E086
:100550000E94E20020910B0230910C02A9014F5F32
:100560005F4F50930C0240930B022B503E4FF9010A
:1005700080838F3221F781E090E090930E02809388
:100580000D02089508950E94100181110C945102EA
:100590000895FC0101900020E9F73197AF01481B55
:1005A000590BBC018FE092E00C94A600009711F06B
:1005B0000C94C90290E080E00895CF93DF930E94ED
:1005C000D602EC0180E491E00E94C9028C0F9D1FCD
:1005D000DF91CF91089582E191E00E94DD0268EE03
:1005E00073E080E090E00E941F0284E291E00E94AC
:1005F000DD0264EF71E080E090E00E941F028EE275
:1006000091E00E94D60283E491E00E94D60264E663
:1006100070E080E090E00E941F028CE591E00E9473
:10062000D60264E670E080E090E00E941F020E9423
:10063000890168EE73E080E090E00E941F0268EE9E
:1006400073E080E090E00E941F0282E191E00E944E
:10065000DD0268EE73E080E090E00E941F0284E219
:1006600091E00E94DD0264EF71E080E090E00E9482
:100670001F028EE291E00E94D60284E791E00E9480
:10068000D60264E670E080E090E00E941F028CE5F4
:1006900091E00E94D60264E670E080E090E00E9463
:1006A0001F020E94890168EE73E080E090E00E94E2
:1006B0001F0268EE73E080E090E00C941F0282E17C
:1006C00091E00E94DD0268EE73E080E090E00E941D
:1006D0001F0284E291E00E94DD0264EF71E080E09D
:1006E00090E00E941F028EE291E00E94D60283E415
:1006F00091E00E94DD0264E670E080E090E00E94FC
:100700001F028EE891E00E94D60264E670E080E06D
:1007100090E00E941F020E94890168EE73E080E071
:1007200090E00E941F0268EE73E080E090E00E947B
:100730001F0282E191E00E94DD0268EE73E080E03A
:1007400090E00E941F0284E291E00E94DD0264EFCB
:1007500071E080E090E00E941F028EE291E00E9432
:10076000D60284E791E00E94D60264E670E080E061
:1007700090E00E941F028DE891E00E94D60264E69C
:1007800070E080E090E00E941F020E94890168EE04
:1007900073E080E090E00E941F0268EE73E080E06A
:1007A00090E00C941F021F920F920FB60F9211242B
:1007B0002F933F934F935F936F937F938F939F9369
:1007C000AF93BF93EF93FF938FE092E00E941A01E3
:1007D000FF91EF91BF91AF919F918F917F916F9119
:1007E0005F914F913F912F910F900FBE0F901F90EF
:1007F00018951F920F920FB60F9211242F938F937B
:100800009F93EF93FF93E0911F02F091200280816C
:10081000E0912502F091260282FD1BC0908180911B
:1008200028028F5F8F7320912902821741F0E09197
:100830002802F0E0E15FFD4F958F80932802FF9141
:10084000EF919F918F912F910F900FBE0F901F905E
:1008500018958081F4CF1F920F920FB60F9211243A
:100860002F933F938F939F93AF93BF938091ED010D
:100870009091EE01A091EF01B091F0013091EC0167
:1008800023E0230F2D3758F50196A11DB11D2093AC
:10089000EC018093ED019093EE01A093EF01B093F2
:1008A000F0018091F1019091F201A091F301B091DA
:1008B000F4010196A11DB11D8093F1019093F20105
:1008C000A093F301B093F401BF91AF919F918F91E9
:1008D0003F912F910F900FBE0F901F90189526E813
:1008E000230F0296A11DB11DD2CFCF93DF93CDB7B9
:1008F000DEB7A1970FB6F894DEBF0FBECDBF7894D8
:1009000084B5826084BD84B5816084BD85B5826014
:1009100085BD85B5816085BD80916E0081608093C5
:100920006E0010928100809181008260809381002E
:10093000809181008160809381008091800081603E
:10094000809380008091B10084608093B100809199
:10095000B00081608093B00080917A0084608093C1
:100960007A0080917A00826080937A0080917A0088
:10097000816080937A0080917A00806880937A0009
:100980001092C100E0911F02F091200282E080836A
:10099000E0911B02F0911C021082E0911D02F09187
:1009A0001E028FEC808310922702E0912302F091C7
:1009B000240286E08083E0912102F091220280816E
:1009C00080618083E0912102F09122028081886021
:1009D0008083E0912102F0912202808180688083EF
:1009E000E0912102F091220280818F7D808384E05A
:1009F0000E94870083E00E94870060E084E00E94FC
:100A0000AE0160E083E00E94AE0160E08AE00E94F7
:100A1000AE0160E27EE480E090E00E941F0261E0AF
:100A20008AE00E94AE0182E191E00E94DD0268EE60
:100A300073E080E090E00E941F0284E291E00E9457
:100A4000DD0264EF71E080E090E00E941F028EE220
:100A500091E00E94D60283E491E00E94DD0264E608
:100A600070E080E090E00E941F0284EA91E00E9422
:100A7000DD0264E670E080E090E00E941F020E94C8
:100A8000890168EE73E080E090E00E941F0268EE4A
:100A900073E080E090E00E941F0282E191E00E94FA
:100AA000DD0268EE73E080E090E00E941F0284E2C5
:100AB00091E00E94DD0264EF71E080E090E00E942E
:100AC0001F0284E791E00E94D60264E670E080E0B5
:100AD00090E00E941F0284EA91E00E94DD0264E639
:100AE00070E080E090E00E941F020E94890168EEA1
:100AF00073E080E090E00E941F0268EE73E080E007
:100B000090E00E941F0280E4382E94EE492E9DEF63
:100B1000592E66246A94762C2AE0C22ED12CE12C20
:100B2000F12C80910D0290910E02019749F548E059
:100B300050E06BEC71E085EF91E00E94F506892BA7
:100B400009F092C061E084E00E94AE0161E083E0C0
:100B50000E94AE010E945F0360ED77E080E090E0CC
:100B60000E941F0210920E0210920D0210920C02AF
:100B700010920B0268EE73E080E090E00E941F028A
:100B800030927C0080917A00806480937A0080911A
:100B90007A0086FDFCCF8091780020917900322F79
:100BA000282F032E000C440B550B265232404109CE
:100BB0005109A4E6B0E00E94B306A30192010E948D
:100BC000940630930A02209309028EED91E00E9470
:100BD000C9028090090290900A02092C000CAA0810
:100BE000BB08B7FE57C06DE28FE092E00E943C0167
:100BF00022273327A901281939094A095B0919A2B3
:100C00008E010F5D1F4FCA01B901A70196010E9415
:100C1000BE06605DF80162938F0121153105410523
:100C2000510589F7C8010E94D6028AEE91E00E9420
:100C3000DD028091090290910A0244970CF040C0B5
:100C400061E084E00E94AE010E945F0368EE73E001
:100C500080E090E00E941F020E941001882309F4A6
:100C600060CF0E9451025DCF49E050E064ED71E039
:100C700085EF91E00E94F506892B09F073CF60E0C3
:100C800084E00E94AE0160E083E00E94AE010E9419
:100C9000EB0262CFA501940119A28E010F5D1F4FD7
:100CA000CA01B901A70196010E94BE06605DF80164
:100CB00062938F01211531054105510589F7B2CFA6
:100CC00060E084E00E94AE010E94EB02BFCFEFE043
:100CD000F2E01382128288EE93E0A0E0B0E0848319
:100CE0009583A683B78384E091E09183808385EC2C
:100CF00090E09587848784EC90E09787868780ECE6
:100D000090E0918B808B81EC90E0938B828B82ECD6
:100D100090E0958B848B86EC90E0978B868B118E80
:100D2000128E138E148E0895052E97FB1EF40094D8
:100D30000E94AB0657FD07D00E94BE0607FC03D0F9
:100D40004EF40C94AB0650954095309521953F4F4D
:100D50004F4F5F4F089590958095709561957F4FA7
:100D60008F4F9F4F08950E94E006A59F900DB49F5E
:100D7000900DA49F800D911D11240895A1E21A2EBB
:100D8000AA1BBB1BFD010DC0AA1FBB1FEE1FFF1F2F
:100D9000A217B307E407F50720F0A21BB30BE40B7F
:100DA000F50B661F771F881F991F1A9469F76095C6
:100DB0007095809590959B01AC01BD01CF01089580
:100DC000A29FB001B39FC001A39F700D811D11248C
:100DD000911DB29F700D811D1124911D0895EE0F7C
:100DE000FF1F0590F491E02D0994FB01DC014150B7
:100DF000504030F08D910190801919F40020B9F71E
:100E0000881B990B0895F894FFCF000000003C0167
:100E1000A600D3008E010401E200F60041542B43EA
:100E20004E4D493D322C322C302C302C3000415468
:100E30002B434D47463D310041542B43534D503DCC
:100E400031372C3136372C302C300D0A0041542BE1
:100E5000434D47533D222B393139323834353633FF
:100E6000323234220D000A4D6F746F722069732084
:100E700044656163746976617465642E0D00415444
:100E80002B434D47533D222B3931373431303131EB
:100E900034383032220D000A0A4D6F746F722069A7
:100EA00073206163746976617465642E0D000A5362
:100EB000797374656D20697320726561647920743B
:100EC0006F207265636569766520636F6D6D616E15
:100ED00064732E0D006D6F746F72206F6E006D6FF6
:100EE000746F72206F6666004D6F736974757265FA
:060EF000203A200025005D
:107E0000112484B714BE81FFF0D085E080938100F7
:107E100082E08093C00088E18093C10086E0809377
:107E2000C20080E18093C4008EE0C9D0259A86E02C
:107E300020E33CEF91E0309385002093840096BBD3
:107E4000B09BFECF1D9AA8958150A9F7CC24DD24C4
:107E500088248394B5E0AB2EA1E19A2EF3E0BF2EE7
:107E6000A2D0813461F49FD0082FAFD0023811F036
:107E7000013811F484E001C083E08DD089C08234E0
:107E800011F484E103C0853419F485E0A6D080C0E4
:107E9000853579F488D0E82EFF2485D0082F10E0AE
:107EA000102F00270E291F29000F111F8ED06801E7
:107EB0006FC0863521F484E090D080E0DECF843638
:107EC00009F040C070D06FD0082F6DD080E0C81688
:107ED00080E7D80618F4F601B7BEE895C0E0D1E017
:107EE00062D089930C17E1F7F0E0CF16F0E7DF06D8
:107EF00018F0F601B7BEE89568D007B600FCFDCFD4
:107F0000A601A0E0B1E02C9130E011968C91119780
:107F100090E0982F8827822B932B1296FA010C0160
:107F200087BEE89511244E5F5F4FF1E0A038BF0790
:107F300051F7F601A7BEE89507B600FCFDCF97BE46
:107F4000E89526C08437B1F42ED02DD0F82E2BD052
:107F50003CD0F601EF2C8F010F5F1F4F84911BD097
:107F6000EA94F801C1F70894C11CD11CFA94CF0C13
:107F7000D11C0EC0853739F428D08EE10CD085E9AC
:107F80000AD08FE07ACF813511F488E018D01DD067
:107F900080E101D065CF982F8091C00085FFFCCF94
:107FA0009093C60008958091C00087FFFCCF809118
:107FB000C00084FD01C0A8958091C6000895E0E648
:107FC000F0E098E1908380830895EDDF803219F02E
:107FD00088E0F5DFFFCF84E1DECF1F93182FE3DFCA
:107FE0001150E9F7F2DF1F91089580E0E8DFEE27F6
:047FF000FF270994CA
:027FFE00040479
:00000001FF
